:100000000C945D000C9485000C9485000C94850084
:100010000C9485000C9485000C9485000C9485004C
:100020000C9485000C9485000C9485000C9485003C
:100030000C9485000C9485000C9485000C9485002C
:100040000C94CB020C9485000C9499020C947302CE
:100050000C9485000C9485000C9485000C9485000C
:100060000C9485000C94850000000008000201003B
:100070000003040700000000000000000000000072
:10008000250028002B0000000000240027002A0083
:10009000040404040404040402020202020203032E
:1000A0000303030301020408102040800102040836
:1000B0001020010204081020520411241FBECFEFAB
:1000C000D8E0DEBFCDBF21E0A2E1B1E001C01D92CA
:1000D000A83BB207E1F711E0A0E0B1E0ECE4F9E001
:1000E00002C005900D92A231B107D9F710E0CDE51D
:1000F000D0E004C02197FE010E949904CC35D107BD
:10010000C9F70E9415030C94A4040C94000090E01D
:10011000FC01EC55FF4F2491FC01E057FF4F849107
:10012000882399F090E0880F991FFC01EA57FF4F50
:10013000A591B491FC01E458FF4F859194918FB73C
:10014000F894EC91E22BEC938FBF08952FB7F894BD
:100150008091170190911801A0911901B0911A0195
:100160002FBF8093230190932401A0932501B09386
:100170002601E0911B01F0911C010484F585E02D1E
:100180008BE191E0099597FF26C02FB7F8948091F5
:10019000170190911801A0911901B0911A012FBF78
:1001A0004091230150912401609125017091260115
:1001B000841B950BA60BB70B40911F01509120019A
:1001C000609121017091220184179507A607B70756
:1001D00080F28FEF9FEF0895CF92DF92EF92FF9220
:1001E0000F931F93CF93DF936C017A018B01C0E0D3
:1001F000D0E0CE15DF0589F0D8016D918D01D601D3
:10020000ED91FC910190F081E02DC6010995892BBB
:1002100011F47E0102C02196ECCFC701DF91CF918E
:100220001F910F91FF90EF90DF90CF900895089568
:1002300080E090E00895FC01538D448D252F30E03F
:10024000842F90E0821B930B541710F0CF960895E3
:1002500001970895FC01918D828D981761F0828D30
:10026000DF01A80FB11D5D968C91928D9F5F9F73EA
:10027000928F90E008958FEF9FEF0895FC01918D8C
:10028000828D981731F0828DE80FF11D858D90E0F9
:1002900008958FEF9FEF0895FC01918D228D892F96
:1002A00090E0805C9F4F821B91098F73992708957E
:1002B0008BE191E00E944C0121E0892B09F420E0C0
:1002C000822F0895FC01848DDF01A80FB11DA35A70
:1002D000BF4F2C91848D90E001968F739927848F66
:1002E000A689B7892C93A089B1898C9180648C935D
:1002F000938D848D981306C00288F389E02D808148
:100300008F7D80830895EF92FF920F931F93CF9379
:10031000DF93EC0181E0888F9B8D8C8D981305C055
:10032000E889F989808185FD24C0F62E0B8D10E0C7
:100330000F5F1F4F0F731127E02E8C8DE8120CC03A
:100340000FB607FCFACFE889F989808185FFF5CFE0
:10035000CE010E946201F1CF8B8DFE01E80FF11DED
:10036000E35AFF4FF0820B8FEA89FB89808180621C
:1003700007C0EE89FF896083E889F98980818064FC
:10038000808381E090E0DF91CF911F910F91FF90EA
:10039000EF900895CF93DF93EC01888D8823C9F007
:1003A000EA89FB89808185FD05C0A889B9898C917E
:1003B00086FD0FC00FB607FCF5CF808185FFF2CF19
:1003C000A889B9898C9185FFEDCFCE010E94620189
:1003D000E7CFDF91CF91089580E090E0892B29F05D
:1003E0000E94580181110C940000089590E0FC01D6
:1003F000E859FF4F3491FC01EC55FF4F2491FC016B
:10040000E057FF4FE491EE2309F43BC0332339F169
:10041000333091F038F43130A9F0323001F584B541
:100420008F7D12C0373091F03830A1F03430B9F4FC
:10043000809180008F7D03C0809180008F778093B2
:1004400080000DC084B58F7784BD09C08091B00055
:100450008F7703C08091B0008F7D8093B000F0E073
:10046000EE0FFF1FE458FF4FA591B4918FB7F8949A
:10047000EC91611103C020952E2301C02E2B2C93EB
:100480008FBF08953FB7F8948091130190911401A4
:10049000A0911501B091160126B5A89B05C02F3F6C
:1004A00019F00196A11DB11D3FBFBA2FA92F982F9A
:1004B0008827820F911DA11DB11DBC01CD0142E015
:1004C000660F771F881F991F4A95D1F7089560E03E
:1004D00087E00E94F60160E086E00E94F60181E07C
:1004E00008950E949F041F920F920FB60F9211243D
:1004F0002F933F934F935F936F937F938F939F932C
:10050000AF93BF93EF93FF938BE191E00E94620161
:10051000FF91EF91BF91AF919F918F917F916F91DB
:100520005F914F913F912F910F900FBE0F901F90B1
:1005300018951F920F920FB60F9211242F938F933D
:100540009F93EF93FF93E0912B01F0912C01808119
:10055000E0913101F091320182FD12C090818091D1
:1005600034018F5F8F7320913501821751F0E09134
:100570003401F0E0E55EFE4F958F8093340101C0B9
:100580008081FF91EF919F918F912F910F900FBEDE
:100590000F901F9018951F920F920FB60F92112473
:1005A0002F933F938F939F93AF93BF9380911701A6
:1005B00090911801A0911901B0911A013091120186
:1005C00023E0230F2D3720F40196A11DB11D05C096
:1005D00026E8230F0296A11DB11D209312018093DE
:1005E000170190931801A0931901B0931A018091FB
:1005F000130190911401A0911501B091160101967B
:10060000A11DB11D8093130190931401A0931501B6
:10061000B0931601BF91AF919F918F913F912F9110
:100620000F900FBE0F901F901895CF93DF9300D0BF
:1006300000D0CDB7DEB7789484B5826084BD84B530
:10064000816084BD85B5826085BD85B5816085BDCD
:1006500080916E00816080936E0010928100809185
:10066000810082608093810080918100816080930D
:100670008100809180008160809380008091B10032
:1006800084608093B1008091B00081608093B0005D
:1006900080917A00846080937A0080917A008260F1
:1006A00080937A0080917A00816080937A008091B3
:1006B0007A00806880937A001092C100E0912B014B
:1006C000F0912C0182E08083E0912701F0912801D4
:1006D0001082E0912901F0912A018FEC8083109221
:1006E0003301E0912F01F091300186E08083E091A9
:1006F0002D01F0912E01808180618083E0912D0198
:10070000F0912E01808188608083E0912D01F0912D
:100710002E01808180688083E0912D01F0912E016F
:1007200080818F7D808387E00E94870086E00E9421
:10073000870088EE682E83E0782E8BE191E00E949E
:100740004C01892B09F489C00E94A600FC0197FD89
:1007500011C08D32910591F0C0970A9778F0E09121
:100760001B01F0911C010284F385E02D8BE191E0E7
:100770000995EACF80E090E0DC012DC020E030E078
:10078000A90110E0E130F10509F06AC0E0911B0118
:10079000F0911C010284F385E02D8BE191E0298327
:1007A0003A834B835C8309950E94A600FC01C097A5
:1007B00029813A814B815C810A9720F3E130F10570
:1007C00009F3112309F46BC088279927DC01821BE8
:1007D000930BA40BB50B8C0118161906E4F50197C1
:1007E000E1F161E087E00E94F60160E086E00E94AE
:1007F000F601069D6001079DD00C169DD00C1124BA
:100800000D2C000CEE08FF080E9442024B015C0117
:10081000C114D104E104F104F1F00E944202DC01B0
:10082000CB0188199909AA09BB09883E9340A10503
:10083000B10570F321E0C21AD108E108F10888EE91
:10084000880E83E0981EA11CB11CC114D104E104E0
:10085000F10419F7DDCF0E9467020E94EC016DCF11
:10086000ED32F105D1F0CF01C0970A9708F08ECF95
:10087000AAE0B0E00E947F046F01FF0FEE08FF08BE
:10088000DC01CB018C0D9D1DAE1DBF1D9C01AD017A
:10089000205331094109510979CF11E077CFDA01AD
:1008A000C90199CFEBE1F1E01382128288EE93E067
:1008B000A0E0B0E084839583A683B78384E091E0D1
:1008C0009183808385EC90E09587848784EC90E029
:1008D0009787868780EC90E0918B808B81EC90E00D
:1008E000938B828B82EC90E0958B848B86EC90E0EE
:1008F000978B868B118E128E138E148E08950E9404
:100900008A04A59F900DB49F900DA49F800D911D0A
:1009100011240895A29FB001B39FC001A39F700D41
:10092000811D1124911DB29F700D811D1124911DF7
:100930000895EE0FFF1F0590F491E02D099481E0DA
:0C09400090E0F8940C94A404F894FFCF0D
:10094C00000000008301EC001B01CA014C012A01CC
:02095C003E015A
:107E0000112484B714BE81FFF0D085E080938100F7
:107E100082E08093C00088E18093C10086E0809377
:107E2000C20080E18093C4008EE0C9D0259A86E02C
:107E300020E33CEF91E0309385002093840096BBD3
:107E4000B09BFECF1D9AA8958150A9F7CC24DD24C4
:107E500088248394B5E0AB2EA1E19A2EF3E0BF2EE7
:107E6000A2D0813461F49FD0082FAFD0023811F036
:107E7000013811F484E001C083E08DD089C08234E0
:107E800011F484E103C0853419F485E0A6D080C0E4
:107E9000853579F488D0E82EFF2485D0082F10E0AE
:107EA000102F00270E291F29000F111F8ED06801E7
:107EB0006FC0863521F484E090D080E0DECF843638
:107EC00009F040C070D06FD0082F6DD080E0C81688
:107ED00080E7D80618F4F601B7BEE895C0E0D1E017
:107EE00062D089930C17E1F7F0E0CF16F0E7DF06D8
:107EF00018F0F601B7BEE89568D007B600FCFDCFD4
:107F0000A601A0E0B1E02C9130E011968C91119780
:107F100090E0982F8827822B932B1296FA010C0160
:107F200087BEE89511244E5F5F4FF1E0A038BF0790
:107F300051F7F601A7BEE89507B600FCFDCF97BE46
:107F4000E89526C08437B1F42ED02DD0F82E2BD052
:107F50003CD0F601EF2C8F010F5F1F4F84911BD097
:107F6000EA94F801C1F70894C11CD11CFA94CF0C13
:107F7000D11C0EC0853739F428D08EE10CD085E9AC
:107F80000AD08FE07ACF813511F488E018D01DD067
:107F900080E101D065CF982F8091C00085FFFCCF94
:107FA0009093C60008958091C00087FFFCCF809118
:107FB000C00084FD01C0A8958091C6000895E0E648
:107FC000F0E098E1908380830895EDDF803219F02E
:107FD00088E0F5DFFFCF84E1DECF1F93182FE3DFCA
:107FE0001150E9F7F2DF1F91089580E0E8DFEE27F6
:047FF000FF270994CA
:027FFE00040479
:0400000300007E007B
:00000001FF
